{
  "abi": [
    {
      "type": "constructor",
      "inputs": [
        {
          "name": "_gamaTokenAddress",
          "type": "address",
          "internalType": "address"
        },
        {
          "name": "vrfCoordinator",
          "type": "address",
          "internalType": "address"
        },
        {
          "name": "subscriptionId",
          "type": "uint64",
          "internalType": "uint64"
        },
        {
          "name": "keyHash",
          "type": "bytes32",
          "internalType": "bytes32"
        },
        {
          "name": "_callbackGasLimit",
          "type": "uint32",
          "internalType": "uint32"
        },
        {
          "name": "_requestConfirmations",
          "type": "uint16",
          "internalType": "uint16"
        },
        {
          "name": "_numWords",
          "type": "uint8",
          "internalType": "uint8"
        }
      ],
      "stateMutability": "nonpayable"
    },
    {
      "type": "function",
      "name": "HEADS",
      "inputs": [],
      "outputs": [
        {
          "name": "",
          "type": "uint8",
          "internalType": "uint8"
        }
      ],
      "stateMutability": "view"
    },
    {
      "type": "function",
      "name": "MAX_BET_AMOUNT",
      "inputs": [],
      "outputs": [
        {
          "name": "",
          "type": "uint256",
          "internalType": "uint256"
        }
      ],
      "stateMutability": "view"
    },
    {
      "type": "function",
      "name": "MAX_HISTORY_SIZE",
      "inputs": [],
      "outputs": [
        {
          "name": "",
          "type": "uint8",
          "internalType": "uint8"
        }
      ],
      "stateMutability": "view"
    },
    {
      "type": "function",
      "name": "MAX_POSSIBLE_PAYOUT",
      "inputs": [],
      "outputs": [
        {
          "name": "",
          "type": "uint256",
          "internalType": "uint256"
        }
      ],
      "stateMutability": "view"
    },
    {
      "type": "function",
      "name": "RESULT_FORCE_STOPPED",
      "inputs": [],
      "outputs": [
        {
          "name": "",
          "type": "uint8",
          "internalType": "uint8"
        }
      ],
      "stateMutability": "view"
    },
    {
      "type": "function",
      "name": "RESULT_RECOVERED",
      "inputs": [],
      "outputs": [
        {
          "name": "",
          "type": "uint8",
          "internalType": "uint8"
        }
      ],
      "stateMutability": "view"
    },
    {
      "type": "function",
      "name": "TAILS",
      "inputs": [],
      "outputs": [
        {
          "name": "",
          "type": "uint8",
          "internalType": "uint8"
        }
      ],
      "stateMutability": "view"
    },
    {
      "type": "function",
      "name": "canStartNewGame",
      "inputs": [
        {
          "name": "player",
          "type": "address",
          "internalType": "address"
        }
      ],
      "outputs": [
        {
          "name": "",
          "type": "bool",
          "internalType": "bool"
        }
      ],
      "stateMutability": "view"
    },
    {
      "type": "function",
      "name": "flipCoin",
      "inputs": [
        {
          "name": "chosenSide",
          "type": "uint8",
          "internalType": "uint8"
        },
        {
          "name": "amount",
          "type": "uint256",
          "internalType": "uint256"
        }
      ],
      "outputs": [
        {
          "name": "requestId",
          "type": "uint256",
          "internalType": "uint256"
        }
      ],
      "stateMutability": "nonpayable"
    },
    {
      "type": "function",
      "name": "forceStopGame",
      "inputs": [
        {
          "name": "player",
          "type": "address",
          "internalType": "address"
        }
      ],
      "outputs": [],
      "stateMutability": "nonpayable"
    },
    {
      "type": "function",
      "name": "gamaToken",
      "inputs": [],
      "outputs": [
        {
          "name": "",
          "type": "address",
          "internalType": "contract IERC20"
        }
      ],
      "stateMutability": "view"
    },
    {
      "type": "function",
      "name": "getBetHistory",
      "inputs": [
        {
          "name": "player",
          "type": "address",
          "internalType": "address"
        }
      ],
      "outputs": [
        {
          "name": "",
          "type": "tuple[]",
          "internalType": "struct BetHistory[]",
          "components": [
            {
              "name": "chosenSide",
              "type": "uint8",
              "internalType": "uint8"
            },
            {
              "name": "flippedResult",
              "type": "uint8",
              "internalType": "uint8"
            },
            {
              "name": "timestamp",
              "type": "uint32",
              "internalType": "uint32"
            },
            {
              "name": "amount",
              "type": "uint256",
              "internalType": "uint256"
            },
            {
              "name": "payout",
              "type": "uint256",
              "internalType": "uint256"
            }
          ]
        }
      ],
      "stateMutability": "view"
    },
    {
      "type": "function",
      "name": "getGameStatus",
      "inputs": [
        {
          "name": "player",
          "type": "address",
          "internalType": "address"
        }
      ],
      "outputs": [
        {
          "name": "isActive",
          "type": "bool",
          "internalType": "bool"
        },
        {
          "name": "isWin",
          "type": "bool",
          "internalType": "bool"
        },
        {
          "name": "isCompleted",
          "type": "bool",
          "internalType": "bool"
        },
        {
          "name": "chosenSide",
          "type": "uint8",
          "internalType": "uint8"
        },
        {
          "name": "amount",
          "type": "uint256",
          "internalType": "uint256"
        },
        {
          "name": "result",
          "type": "uint8",
          "internalType": "uint8"
        },
        {
          "name": "payout",
          "type": "uint256",
          "internalType": "uint256"
        },
        {
          "name": "requestId",
          "type": "uint256",
          "internalType": "uint256"
        },
        {
          "name": "requestExists",
          "type": "bool",
          "internalType": "bool"
        },
        {
          "name": "requestProcessed",
          "type": "bool",
          "internalType": "bool"
        },
        {
          "name": "recoveryEligible",
          "type": "bool",
          "internalType": "bool"
        },
        {
          "name": "lastPlayTimestamp",
          "type": "uint256",
          "internalType": "uint256"
        }
      ],
      "stateMutability": "view"
    },
    {
      "type": "function",
      "name": "getPlayerForRequest",
      "inputs": [
        {
          "name": "requestId",
          "type": "uint256",
          "internalType": "uint256"
        }
      ],
      "outputs": [
        {
          "name": "",
          "type": "address",
          "internalType": "address"
        }
      ],
      "stateMutability": "view"
    },
    {
      "type": "function",
      "name": "getUserData",
      "inputs": [
        {
          "name": "player",
          "type": "address",
          "internalType": "address"
        }
      ],
      "outputs": [
        {
          "name": "gameState",
          "type": "tuple",
          "internalType": "struct GameState",
          "components": [
            {
              "name": "isActive",
              "type": "bool",
              "internalType": "bool"
            },
            {
              "name": "completed",
              "type": "bool",
              "internalType": "bool"
            },
            {
              "name": "chosenSide",
              "type": "uint8",
              "internalType": "uint8"
            },
            {
              "name": "result",
              "type": "uint8",
              "internalType": "uint8"
            },
            {
              "name": "amount",
              "type": "uint256",
              "internalType": "uint256"
            },
            {
              "name": "payout",
              "type": "uint256",
              "internalType": "uint256"
            }
          ]
        },
        {
          "name": "lastPlayed",
          "type": "uint256",
          "internalType": "uint256"
        }
      ],
      "stateMutability": "view"
    },
    {
      "type": "function",
      "name": "hasPendingRequest",
      "inputs": [
        {
          "name": "player",
          "type": "address",
          "internalType": "address"
        }
      ],
      "outputs": [
        {
          "name": "",
          "type": "bool",
          "internalType": "bool"
        }
      ],
      "stateMutability": "view"
    },
    {
      "type": "function",
      "name": "owner",
      "inputs": [],
      "outputs": [
        {
          "name": "",
          "type": "address",
          "internalType": "address"
        }
      ],
      "stateMutability": "view"
    },
    {
      "type": "function",
      "name": "pause",
      "inputs": [],
      "outputs": [],
      "stateMutability": "nonpayable"
    },
    {
      "type": "function",
      "name": "paused",
      "inputs": [],
      "outputs": [
        {
          "name": "",
          "type": "bool",
          "internalType": "bool"
        }
      ],
      "stateMutability": "view"
    },
    {
      "type": "function",
      "name": "rawFulfillRandomWords",
      "inputs": [
        {
          "name": "requestId",
          "type": "uint256",
          "internalType": "uint256"
        },
        {
          "name": "randomWords",
          "type": "uint256[]",
          "internalType": "uint256[]"
        }
      ],
      "outputs": [],
      "stateMutability": "nonpayable"
    },
    {
      "type": "function",
      "name": "recoverOwnStuckGame",
      "inputs": [],
      "outputs": [],
      "stateMutability": "nonpayable"
    },
    {
      "type": "function",
      "name": "renounceOwnership",
      "inputs": [],
      "outputs": [],
      "stateMutability": "nonpayable"
    },
    {
      "type": "function",
      "name": "s_requests",
      "inputs": [
        {
          "name": "",
          "type": "uint256",
          "internalType": "uint256"
        }
      ],
      "outputs": [
        {
          "name": "fulfilled",
          "type": "bool",
          "internalType": "bool"
        },
        {
          "name": "exists",
          "type": "bool",
          "internalType": "bool"
        }
      ],
      "stateMutability": "view"
    },
    {
      "type": "function",
      "name": "totalGamesPlayed",
      "inputs": [],
      "outputs": [
        {
          "name": "",
          "type": "uint256",
          "internalType": "uint256"
        }
      ],
      "stateMutability": "view"
    },
    {
      "type": "function",
      "name": "totalPayoutAmount",
      "inputs": [],
      "outputs": [
        {
          "name": "",
          "type": "uint256",
          "internalType": "uint256"
        }
      ],
      "stateMutability": "view"
    },
    {
      "type": "function",
      "name": "totalWageredAmount",
      "inputs": [],
      "outputs": [
        {
          "name": "",
          "type": "uint256",
          "internalType": "uint256"
        }
      ],
      "stateMutability": "view"
    },
    {
      "type": "function",
      "name": "transferOwnership",
      "inputs": [
        {
          "name": "newOwner",
          "type": "address",
          "internalType": "address"
        }
      ],
      "outputs": [],
      "stateMutability": "nonpayable"
    },
    {
      "type": "function",
      "name": "unpause",
      "inputs": [],
      "outputs": [],
      "stateMutability": "nonpayable"
    },
    {
      "type": "event",
      "name": "BetPlaced",
      "inputs": [
        {
          "name": "player",
          "type": "address",
          "indexed": true,
          "internalType": "address"
        },
        {
          "name": "requestId",
          "type": "uint256",
          "indexed": false,
          "internalType": "uint256"
        },
        {
          "name": "chosenSide",
          "type": "uint8",
          "indexed": false,
          "internalType": "uint8"
        },
        {
          "name": "amount",
          "type": "uint256",
          "indexed": false,
          "internalType": "uint256"
        }
      ],
      "anonymous": false
    },
    {
      "type": "event",
      "name": "GameCompleted",
      "inputs": [
        {
          "name": "player",
          "type": "address",
          "indexed": true,
          "internalType": "address"
        },
        {
          "name": "requestId",
          "type": "uint256",
          "indexed": false,
          "internalType": "uint256"
        },
        {
          "name": "result",
          "type": "uint8",
          "indexed": false,
          "internalType": "uint8"
        },
        {
          "name": "payout",
          "type": "uint256",
          "indexed": false,
          "internalType": "uint256"
        }
      ],
      "anonymous": false
    },
    {
      "type": "event",
      "name": "GameRecovered",
      "inputs": [
        {
          "name": "player",
          "type": "address",
          "indexed": true,
          "internalType": "address"
        },
        {
          "name": "requestId",
          "type": "uint256",
          "indexed": false,
          "internalType": "uint256"
        },
        {
          "name": "refundAmount",
          "type": "uint256",
          "indexed": false,
          "internalType": "uint256"
        }
      ],
      "anonymous": false
    },
    {
      "type": "event",
      "name": "OwnershipTransferred",
      "inputs": [
        {
          "name": "previousOwner",
          "type": "address",
          "indexed": true,
          "internalType": "address"
        },
        {
          "name": "newOwner",
          "type": "address",
          "indexed": true,
          "internalType": "address"
        }
      ],
      "anonymous": false
    },
    {
      "type": "event",
      "name": "Paused",
      "inputs": [
        {
          "name": "account",
          "type": "address",
          "indexed": false,
          "internalType": "address"
        }
      ],
      "anonymous": false
    },
    {
      "type": "event",
      "name": "Unpaused",
      "inputs": [
        {
          "name": "account",
          "type": "address",
          "indexed": false,
          "internalType": "address"
        }
      ],
      "anonymous": false
    },
    {
      "type": "error",
      "name": "BurnFailed",
      "inputs": [
        {
          "name": "account",
          "type": "address",
          "internalType": "address"
        },
        {
          "name": "amount",
          "type": "uint256",
          "internalType": "uint256"
        }
      ]
    },
    {
      "type": "error",
      "name": "EnforcedPause",
      "inputs": []
    },
    {
      "type": "error",
      "name": "ExpectedPause",
      "inputs": []
    },
    {
      "type": "error",
      "name": "GameError",
      "inputs": [
        {
          "name": "reason",
          "type": "string",
          "internalType": "string"
        }
      ]
    },
    {
      "type": "error",
      "name": "InsufficientAllowance",
      "inputs": [
        {
          "name": "required",
          "type": "uint256",
          "internalType": "uint256"
        },
        {
          "name": "allowed",
          "type": "uint256",
          "internalType": "uint256"
        }
      ]
    },
    {
      "type": "error",
      "name": "InsufficientUserBalance",
      "inputs": [
        {
          "name": "required",
          "type": "uint256",
          "internalType": "uint256"
        },
        {
          "name": "available",
          "type": "uint256",
          "internalType": "uint256"
        }
      ]
    },
    {
      "type": "error",
      "name": "InvalidBetParameters",
      "inputs": [
        {
          "name": "reason",
          "type": "string",
          "internalType": "string"
        }
      ]
    },
    {
      "type": "error",
      "name": "MaxPayoutExceeded",
      "inputs": [
        {
          "name": "potentialPayout",
          "type": "uint256",
          "internalType": "uint256"
        },
        {
          "name": "maxAllowed",
          "type": "uint256",
          "internalType": "uint256"
        }
      ]
    },
    {
      "type": "error",
      "name": "MintFailed",
      "inputs": [
        {
          "name": "account",
          "type": "address",
          "internalType": "address"
        },
        {
          "name": "amount",
          "type": "uint256",
          "internalType": "uint256"
        }
      ]
    },
    {
      "type": "error",
      "name": "OnlyCoordinatorCanFulfill",
      "inputs": [
        {
          "name": "have",
          "type": "address",
          "internalType": "address"
        },
        {
          "name": "want",
          "type": "address",
          "internalType": "address"
        }
      ]
    },
    {
      "type": "error",
      "name": "OwnableInvalidOwner",
      "inputs": [
        {
          "name": "owner",
          "type": "address",
          "internalType": "address"
        }
      ]
    },
    {
      "type": "error",
      "name": "OwnableUnauthorizedAccount",
      "inputs": [
        {
          "name": "account",
          "type": "address",
          "internalType": "address"
        }
      ]
    },
    {
      "type": "error",
      "name": "PayoutCalculationError",
      "inputs": [
        {
          "name": "message",
          "type": "string",
          "internalType": "string"
        }
      ]
    },
    {
      "type": "error",
      "name": "ReentrancyGuardReentrantCall",
      "inputs": []
    },
    {
      "type": "error",
      "name": "TransferFailed",
      "inputs": [
        {
          "name": "from",
          "type": "address",
          "internalType": "address"
        },
        {
          "name": "to",
          "type": "address",
          "internalType": "address"
        },
        {
          "name": "amount",
          "type": "uint256",
          "internalType": "uint256"
        }
      ]
    },
    {
      "type": "error",
      "name": "VRFError",
      "inputs": [
        {
          "name": "reason",
          "type": "string",
          "internalType": "string"
        }
      ]
    }
  ],
  "bytecode": {
    "object": "0x6101803461030457601f6132ad38819003918201601f19168301916001600160401b038311848410176103085780849260e094604052833981010312610304576100488161031c565b906100556020820161031c565b60408201519092906001600160401b03811681036103045760608301519060808401519263ffffffff8416908185036103045760a08601519561ffff871687036103045760c001519660ff8816908189036103045760015f558060805233156102f15760018054610100600160a81b0319811633600881811b610100600160a81b031692909217909355604051959291901c6001600160a01b03167f8be0079c531659141344cd1fd0a4f28419497f9722a3daafe3b4186f6b6457e05f80a36001600160a01b03169283156102af57506001600160a01b031692831561026a571561021b57156101d65760a05260c05260e05261010052610120526101405261016052604051612f7c90816103318239608051816120e4015260a05181818161034f01528181610fec0152818161122c01528181611865015261296d015260c0518161061f015260e0518161055d0152610100518161052e015261012051816105b3015261014051816105870152610160518181816105dc015261269e0152f35b60405162461bcd60e51b815260206004820152601e60248201527f4e756d626572206f6620776f7264732063616e6e6f74206265207a65726f00006044820152606490fd5b60405162461bcd60e51b815260206004820152602160248201527f43616c6c6261636b20676173206c696d69742063616e6e6f74206265207a65726044820152606f60f81b6064820152608490fd5b60405162461bcd60e51b815260206004820152601e60248201527f56524620636f6f7264696e61746f722063616e6e6f74206265207a65726f00006044820152606490fd5b62461bcd60e51b815260206004820152601c60248201527f546f6b656e20616464726573732063616e6e6f74206265207a65726f000000006044820152606490fd5b631e4fbdf760e01b5f525f60045260245ffd5b5f80fd5b634e487b7160e01b5f52604160045260245ffd5b51906001600160a01b03821682036103045756fe6080806040526004361015610012575f80fd5b5f905f3560e01c90816304243151146121e4575080630c99375d146121815780631995cec6146121665780631fe543e31461205d578063309167f51461203857806338f8bc6d1461201d5780633f4ba83a14611f925780634689b44114611f6d5780634ca1a83814611f5257806354e4437e14611daf57806357816f3e14611d945780635bdb2e1b14611d775780635c49212914611d5a5780635c975abb14611d385780635d424b8514611cd4578063715018a614611c535780638456cb5914611bef5780638da5cb5b14611bb9578063a168fa8914611b7f578063a20ff9fc146116cf578063b52a0855146110e3578063c1066251146110c7578063ce84a53b14611010578063d56ec8c914610fbf578063e7efcfc214610fa1578063f2fde38b14610ea9578063f3b4d4cb146102bc5763ffc9896b14610152575f80fd5b346102b95760206003193601126102b95760043573ffffffffffffffffffffffffffffffffffffffff81168091036102b7578160a060405161019381612220565b82815282602082015282604082015282606082015282608082015201528015610258578160409160e0935260026020522063ffffffff6005820154166040516101db81612220565b82549260ff8085161515948584528160208501818360081c16151581526040860190828460101c16825282606088019460181c16845260a0600260018801549760808a0198895201549701968752604051988952511515602089015251166040870152511660608501525160808401525160a083015260c0820152f35b6040517f34460f4100000000000000000000000000000000000000000000000000000000815260206004820152601660248201527f496e76616c696420706c617965722061646472657373000000000000000000006044820152606490fd5b505b80fd5b50346102b95760406003193601126102b95760043560ff8116918282036102b957602435916102e9612e16565b6102f1612e4d565b8215610e4b576a084595161401484a0000008311610ded57600184141580610de2575b610d5e573382526002602052604082209260ff845416610d0057600384018054610ca25773ffffffffffffffffffffffffffffffffffffffff7f0000000000000000000000000000000000000000000000000000000000000000166040517f70a08231000000000000000000000000000000000000000000000000000000008152336004820152602081602481855afa908115610bb7579084918791610c6d575b5010610bc2576040517fdd62ed3e000000000000000000000000000000000000000000000000000000008152336004820152306024820152602081604481855afa908115610bb7579084918791610b82575b5010610ac2578260011b838104600203610a9557837f7fffffffffffffffffffffffffffffffffffffffffffffffffffffffffffffff811603610a37576a108b2a2c2802909400000081116109fd57604051907f6f97e31c000000000000000000000000000000000000000000000000000000008252602082600481865afa9182156109f25787926109be575b50818111610990575050803b1561098c576040517f79cc6790000000000000000000000000000000000000000000000000000000008152336004820152602481018490529085908290604490829084905af1801561096857908591610973575b5050610502826005546122de565b600555604051947f5d3b1d300000000000000000000000000000000000000000000000000000000086527f0000000000000000000000000000000000000000000000000000000000000000600487015267ffffffffffffffff7f000000000000000000000000000000000000000000000000000000000000000016602487015261ffff7f000000000000000000000000000000000000000000000000000000000000000016604487015263ffffffff7f000000000000000000000000000000000000000000000000000000000000000016606487015260ff7f000000000000000000000000000000000000000000000000000000000000000016608487015260208660a4818873ffffffffffffffffffffffffffffffffffffffff7f0000000000000000000000000000000000000000000000000000000000000000165af1958615610968578596610930575b506020966040516106608982612285565b8681525f3681376040516060810181811067ffffffffffffffff82111761090357906001916040528881528a8101828152604082019384528a8a5260068c5260408a209151151560ff60ff19845416911515161782555115157fffffffffffffffffffffffffffffffffffffffffffffffffffffffffffff00ff61ff00835492151560081b1691161781550190519081519167ffffffffffffffff83116109035791818b8094610714848e9a999896612334565b01908a52838a208a5b8381106108ec575050505092876002819897948260a089966108e0997f1efa8a4db358fbd4b3e1004cca7c5a1bdc9de3512d3392d48a51d1961316f9839b60019f526007825260408420337fffffffffffffffffffffffff000000000000000000000000000000000000000082541617905588845260088252604084208f60ff198254161790556005850163ffffffff42167fffffffffffffffffffffffffffffffffffffffffffffffffffffffff00000000825416179055436006860155600785017fffffffffffffffffffffffffffffffffffffffffffffffffffffffffffff00ff8154169055836040519261081484612220565b60018452830152604082015282606082015288608082015201528a60ff198254161781557fffffffffffffffffffffffffffffffffffffffffffffffffffffffffffff00ff815416815580547fffffffffffffffffffffffffffffffffffffffffffffffffffffffffff00ffff62ff00008b60101b1691161781557fffffffffffffffffffffffffffffffffffffffffffffffffffffffff00ffffff8154168155858b8201550155556040519182913395898460ff604092959493606083019683521660208201520152565b0390a255604051908152f35b8251818301558c98508d959092019160010161071d565b6024897f4e487b710000000000000000000000000000000000000000000000000000000081526041600452fd5b9095506020813d602011610960575b8161094c60209383612285565b8101031261095c5751945f61064f565b5f80fd5b3d915061093f565b6040513d87823e3d90fd5b8161097d91612285565b61098857835f6104f4565b8380fd5b8480fd5b7f21e510be000000000000000000000000000000000000000000000000000000008752600452602452604485fd5b9091506020813d6020116109ea575b816109da60209383612285565b8101031261095c5751905f610494565b3d91506109cd565b6040513d89823e3d90fd5b7f21e510be0000000000000000000000000000000000000000000000000000000086526004526a108b2a2c28029094000000602452604485fd5b60646040517f327512f600000000000000000000000000000000000000000000000000000000815260206004820152601b60248201527f5061796f75742063616c63756c6174696f6e206f766572666c6f7700000000006044820152fd5b6024867f4e487b710000000000000000000000000000000000000000000000000000000081526011600452fd5b6040517fdd62ed3e0000000000000000000000000000000000000000000000000000000081523360048201523060248201529085908490602090849060449082905afa908115610b77578291610b42575b604493507f2a1b2dd8000000000000000000000000000000000000000000000000000000008352600452602452fd5b90506020833d602011610b6f575b81610b5d60209383612285565b8101031261095c576044925190610b13565b3d9150610b50565b6040513d84823e3d90fd5b9150506020813d602011610baf575b81610b9e60209383612285565b8101031261095c578390515f610407565b3d9150610b91565b6040513d88823e3d90fd5b84836020602493604051948580927f70a082310000000000000000000000000000000000000000000000000000000082523360048301525afa908115610b77578291610c38575b604493507f5f504d20000000000000000000000000000000000000000000000000000000008352600452602452fd5b90506020833d602011610c65575b81610c5360209383612285565b8101031261095c576044925190610c09565b3d9150610c46565b9150506020813d602011610c9a575b81610c8960209383612285565b8101031261095c578390515f6103b5565b3d9150610c7c565b60646040517f13b419a900000000000000000000000000000000000000000000000000000000815260206004820152601a60248201527f557365722068617320612070656e64696e6720726571756573740000000000006044820152fd5b60646040517f13b419a900000000000000000000000000000000000000000000000000000000815260206004820152601760248201527f557365722068617320616e206163746976652067616d650000000000000000006044820152fd5b60846040517f34460f4100000000000000000000000000000000000000000000000000000000815260206004820152603860248201527f496e76616c69642063686f73656e207369646520286d7573742062652031206660448201527f6f72204845414453206f72203220666f72205441494c532900000000000000006064820152fd5b506002841415610314565b60646040517f34460f4100000000000000000000000000000000000000000000000000000000815260206004820152601460248201527f42657420616d6f756e7420746f6f206c617267650000000000000000000000006044820152fd5b60646040517f34460f4100000000000000000000000000000000000000000000000000000000815260206004820152601960248201527f42657420616d6f756e742063616e6e6f74206265207a65726f000000000000006044820152fd5b50346102b95760206003193601126102b95760043573ffffffffffffffffffffffffffffffffffffffff811690818103610f9d57610ee5612dc6565b8115610f715773ffffffffffffffffffffffffffffffffffffffff9074ffffffffffffffffffffffffffffffffffffffff006001549160081b167fffffffffffffffffffffff0000000000000000000000000000000000000000ff82161760015560081c167f8be0079c531659141344cd1fd0a4f28419497f9722a3daafe3b4186f6b6457e08380a380f35b6024837f1e4fbdf700000000000000000000000000000000000000000000000000000000815280600452fd5b8280fd5b50346102b957806003193601126102b9576020600454604051908152f35b50346102b957806003193601126102b957602060405173ffffffffffffffffffffffffffffffffffffffff7f0000000000000000000000000000000000000000000000000000000000000000168152f35b50346102b95760206003193601126102b95760043573ffffffffffffffffffffffffffffffffffffffff811681036102b75761104b90612426565b90604051918291602083016020845282518091526020604085019301915b818110611077575050500390f35b91935091602060a06001926080875160ff815116835260ff85820151168584015263ffffffff60408201511660408401526060810151606084015201516080820152019401910191849392611069565b50346102b957806003193601126102b9576020604051600a8152f35b50346102b95760206003193601126102b95760043573ffffffffffffffffffffffffffffffffffffffff811690818103610f9d5761111f612dc6565b611127612e16565b8183526002602052604083209060ff8254161561167057600382019081549283151580809161165a575b80611641575b6115bc57600682015461012c810180911161158f5743118163ffffffff611183816005870154166122eb565b16421181611575575b82159261156c575b508115611563575b506114e057600182015493841561148157879161141c575b82547fffffffffffffffffffffffffffffffffffffffffffffffffffffffff00ff00001663fe00010017835560028301859055556007810180547fffffffffffffffffffffffffffffffffffffffffffffffffffffffffffff00ff16815591869073ffffffffffffffffffffffffffffffffffffffff7f000000000000000000000000000000000000000000000000000000000000000016803b15610f9d576040517f40c10f1900000000000000000000000000000000000000000000000000000000815273ffffffffffffffffffffffffffffffffffffffff9290921660048301526024820186905282908290604490829084905af18015610b7757611403575b5050600460ff825460101c1691604051926112d084612269565b835260fe602084015263ffffffff421660408401528460608401528460808401520190600a8254105f146113a4578154680100000000000000008110156113775760ff600a604096946113577ff43f4cfd330c9814ec89dcb330ca1c7559745bb35a6ea4068b171116c4ea3d53999795611351866001879801855584612386565b90612e81565b5406161660ff198254161790555b82519182526020820152a26001815580f35b6024887f4e487b710000000000000000000000000000000000000000000000000000000081526041600452fd5b6113516113b69260ff85541690612386565b600160ff8254160160ff8111610a9557917ff43f4cfd330c9814ec89dcb330ca1c7559745bb35a6ea4068b171116c4ea3d53939160ff600a8160409616061660ff19825416179055611365565b8161140d91612285565b61141857855f6112b6565b8580fd5b8582526007602052604082207fffffffffffffffffffffffff0000000000000000000000000000000000000000815416905585825260086020526040822060ff198154169055858252600660205261147c60016040842084815501612304565b6111b4565b6040517f13b419a900000000000000000000000000000000000000000000000000000000815260206004820152601160248201527f4e6f7468696e6720746f20726566756e640000000000000000000000000000006044820152606490fd5b60846040517f13b419a9000000000000000000000000000000000000000000000000000000008152602060048201526024808201527f47616d65206e6f7420656c696769626c6520666f7220666f7263652073746f7060448201527f20796574000000000000000000000000000000000000000000000000000000006064820152fd5b9050155f61119c565b1591505f611194565b878a52600660205260408a205460081c60ff16915061118c565b6024887f4e487b710000000000000000000000000000000000000000000000000000000081526011600452fd5b6040517f13b419a900000000000000000000000000000000000000000000000000000000815260206004820152602860248201527f52657175657374206a7573742066756c66696c6c65642c206c6574205652462060448201527f636f6d706c6574650000000000000000000000000000000000000000000000006064820152608490fd5b506006820154600a810180911161158f57431115611157565b50848752600660205260ff604088205416611151565b6040517f13b419a900000000000000000000000000000000000000000000000000000000815260206004820152600e60248201527f4e6f206163746976652067616d650000000000000000000000000000000000006044820152606490fd5b503461095c575f60031936011261095c576116e8612e16565b6116f0612e4d565b335f52600260205260405f2060ff8154161561167057600381018054918215611b2157825f52600660205260ff60405f20541680611b08575b6115bc57600681015461012c8101809111611adb57431163ffffffff611754816005850154166122eb565b164211845f52600660205260ff60405f205460081c1690821592611ad2575b508115611ac9575b50611a45576001810154918215611481575f9084825260066020526117a860016040842084815501612304565b84825260076020818152604080852080547fffffffffffffffffffffffff000000000000000000000000000000000000000016905587855260089091528320805460ff1916905583547fffffffffffffffffffffffffffffffffffffffffffffffffffffffff00ff00001663ff00010017845560028401859055919055810180547fffffffffffffffffffffffffffffffffffffffffffffffffffffffffffff00ff1681559073ffffffffffffffffffffffffffffffffffffffff7f000000000000000000000000000000000000000000000000000000000000000016803b1561095c576040517f40c10f1900000000000000000000000000000000000000000000000000000000815233600482015260248101859052905f908290604490829084905af18015611a3a57611a25575b50600460ff825460101c1691604051926118f184612269565b835260ff602084015263ffffffff421660408401528460608401528460808401520190600a8254105f146119bf578154680100000000000000008110156119925760ff9261194c8493611351846001600a9601855584612386565b5406161660ff198254161790555b60405191825260208201527ff43f4cfd330c9814ec89dcb330ca1c7559745bb35a6ea4068b171116c4ea3d5360403392a26001815580f35b6024877f4e487b710000000000000000000000000000000000000000000000000000000081526041600452fd5b6113516119d19260ff85541690612386565b600160ff8254160160ff81116119f857600a60ff809216061660ff1982541617905561195a565b6024857f4e487b710000000000000000000000000000000000000000000000000000000081526011600452fd5b611a329195505f90612285565b5f935f6118d8565b6040513d5f823e3d90fd5b60846040517f13b419a900000000000000000000000000000000000000000000000000000000815260206004820152602260248201527f47616d65206e6f7420656c696769626c6520666f72207265636f76657279207960448201527f65740000000000000000000000000000000000000000000000000000000000006064820152fd5b9050155f61177b565b1591505f611773565b7f4e487b71000000000000000000000000000000000000000000000000000000005f52601160045260245ffd5b506006810154600a8101809111611adb57431115611729565b60646040517f13b419a900000000000000000000000000000000000000000000000000000000815260206004820152601d60248201527f4e6f2070656e64696e67207265717565737420746f207265636f7665720000006044820152fd5b3461095c57602060031936011261095c576004355f5260066020526040805f205460ff8251918181161515835260081c1615156020820152f35b3461095c575f60031936011261095c57602073ffffffffffffffffffffffffffffffffffffffff60015460081c16604051908152f35b3461095c575f60031936011261095c57611c07612dc6565b611c0f612e16565b611c17612e4d565b600160ff19815416176001557f62e78cea01bee320cd4e420270b5ea74000d11b0c9f74754ebdbfc544b05a2586020604051338152a160015f55005b3461095c575f60031936011261095c57611c6b612dc6565b5f73ffffffffffffffffffffffffffffffffffffffff6001547fffffffffffffffffffffff0000000000000000000000000000000000000000ff811660015560081c167f8be0079c531659141344cd1fd0a4f28419497f9722a3daafe3b4186f6b6457e08280a3005b3461095c57602060031936011261095c5760043573ffffffffffffffffffffffffffffffffffffffff811680910361095c575f526002602052602060405f2060ff815416159081611d2b575b506040519015158152f35b6003915001541582611d20565b3461095c575f60031936011261095c57602060ff600154166040519015158152f35b3461095c575f60031936011261095c576020600354604051908152f35b3461095c575f60031936011261095c576020600554604051908152f35b3461095c575f60031936011261095c57602060405160ff8152f35b3461095c57602060031936011261095c5760043573ffffffffffffffffffffffffffffffffffffffff811680910361095c578015610258575f52600260205260405f2080549060ff821660018201549260ff8160181c1692600281015491600382015463ffffffff600584015416938015159687611f2d575b8697985f979697945f968515159081611f0b575b5f99611ea5575b505060ff906101809b6040519b15158c52151560208c0152818160081c16151560408c015260101c1660608a0152608089015260a088015260c087015260e0860152151561010085015215156101208401521515610140830152610160820152f35b6006919c995001549061012c8201809211611adb576101809b60ff9243119063ffffffff611ed28d6122eb565b16421181611f03575b82611efb575b5081611ef3575b50989b819250611e43565b90508d611ee8565b91508e611ee1565b899150611edb565b97509550845f52600660205260405f20549560ff808860081c16971697611e3c565b869750600181979697148015611f48575b9750959495611e28565b5060028114611f3e565b3461095c575f60031936011261095c57602060405160028152f35b3461095c575f60031936011261095c5760206040516a108b2a2c280290940000008152f35b3461095c575f60031936011261095c57611faa612dc6565b611fb2612e16565b60015460ff811615611ff55760ff19166001557f5db9ee0a495bf2e6ff9c91a7834c1ba4fdd244a5e8aa4e537bd38aeae4b073aa6020604051338152a160015f55005b7f8dfc202b000000000000000000000000000000000000000000000000000000005f5260045ffd5b3461095c575f60031936011261095c57602060405160fe8152f35b3461095c575f60031936011261095c5760206040516a084595161401484a0000008152f35b3461095c57604060031936011261095c5760243567ffffffffffffffff811161095c573660238201121561095c5780600401359061209a826122c6565b916120a86040519384612285565b8083526024602084019160051b8301019136831161095c57602401905b828210612156578373ffffffffffffffffffffffffffffffffffffffff7f000000000000000000000000000000000000000000000000000000000000000016908133036121265761212090612118612e16565b600435612673565b60015f55005b507f1cf993f4000000000000000000000000000000000000000000000000000000005f523360045260245260445ffd5b81358152602091820191016120c5565b3461095c575f60031936011261095c57602060405160018152f35b3461095c57602060031936011261095c5760043573ffffffffffffffffffffffffffffffffffffffff811680910361095c575f526002602052602060405f2060ff81541690816121d657506040519015158152f35b600391500154151582611d20565b3461095c57602060031936011261095c576020906004355f526007825273ffffffffffffffffffffffffffffffffffffffff60405f2054168152f35b60c0810190811067ffffffffffffffff82111761223c57604052565b7f4e487b71000000000000000000000000000000000000000000000000000000005f52604160045260245ffd5b60a0810190811067ffffffffffffffff82111761223c57604052565b90601f7fffffffffffffffffffffffffffffffffffffffffffffffffffffffffffffffe0910116810190811067ffffffffffffffff82111761223c57604052565b67ffffffffffffffff811161223c5760051b60200190565b91908201809211611adb57565b63ffffffff610e109116019063ffffffff8211611adb57565b8054905f815581612313575050565b5f5260205f20908101905b818110612329575050565b5f815560010161231e565b9068010000000000000000811161223c5781549181815582821061235757505050565b5f5260205f2091820191015b81811061236e575050565b5f8155600101612363565b91908203918211611adb57565b805482101561239f575f52600360205f20910201905f90565b7f4e487b71000000000000000000000000000000000000000000000000000000005f52603260045260245ffd5b805182101561239f5760209160051b010190565b906040516123ed81612269565b60806002829463ffffffff815460ff8116865260ff8160081c16602087015260101c166040850152600181015460608501520154910152565b73ffffffffffffffffffffffffffffffffffffffff606091168015610258575f52600260205260405f20906004820180549182156126185750600a82111561261157600a925b7fffffffffffffffffffffffffffffffffffffffffffffffffffffffffffffffe06124af612499866122c6565b956124a76040519788612285565b8087526122c6565b015f5b8181106125dc575050600a83101561253c57507fffffffffffffffffffffffffffffffffffffffffffffffffffffffffffffffff82018281115f5b8481106124fc57505050505090565b81611adb578061252061251a61251460019487612379565b87612386565b506123e0565b61252a82896123cc565b5261253581886123cc565b50016124ed565b6007015490915060ff16806125aa575060ff60095b16905f91600a8101809111925b600a811061256d575050505090565b83611adb578061258e61251a600a61258760019587612379565b0686612386565b61259882886123cc565b526125a381876123cc565b500161255e565b7fffffffffffffffffffffffffffffffffffffffffffffffffffffffffffffffff0160ff8111611adb5760ff90612551565b6020906040516125eb81612269565b5f81525f838201525f60408201525f60608201525f6080820152828289010152016124b2565b819261246c565b925050506040519061262b602083612285565b5f82525f90815b82811061263f5750505090565b60209060405161264e81612269565b5f81525f838201525f60408201525f848201525f608082015282828701015201612632565b90815f52600660205260405f209182549060ff8260081c1615612d685760ff8216612d0a57825160ff7f00000000000000000000000000000000000000000000000000000000000000001603612cac57805f52600760205273ffffffffffffffffffffffffffffffffffffffff60405f205416938415612c4d57845f52600260205260405f2092600384019183835403612bef57600160ff1981931617815501845167ffffffffffffffff811161223c5761272e8183612334565b6020860180925f5260205f205f5b838110612bdb575050505060078401906101007fffffffffffffffffffffffffffffffffffffffffffffffffffffffffffff00ff83541617825560ff85541615612b4b5760ff855460101c1690600186015496511561239f578060019150511660018101809111611adb5760ff16945f96868314612a84575b81547fffffffffffffffffffffffffffffffffffffffffffffffffffffffff00ff000016601888901b63ff00000016176101001782556002820188905560405192600492919061280485612269565b845287602085015263ffffffff4216604085015260608401528760808401520190600a8254105f14612a4b578154906801000000000000000082101561223c5760ff9261285e600a92611351856001889701855584612386565b5406161660ff198254161781555b5f8515159283612a37575b6001600354016003558482526007602052604082207fffffffffffffffffffffffff0000000000000000000000000000000000000000815416905584825260086020526040822060ff19815416905584825260066020526128e060016040842084815501612304565b557fffffffffffffffffffffffffffffffffffffffffffffffffffffffffffff00ff8154169055612956575b6129517fc74777e2214d32e7b4952c2ecbbfc0ec7dc3642e448c3c927261cb69d9f03650936040519384938460ff604092959493606083019683521660208201520152565b0390a2565b73ffffffffffffffffffffffffffffffffffffffff7f00000000000000000000000000000000000000000000000000000000000000001692833b1561095c576040517f40c10f1900000000000000000000000000000000000000000000000000000000815273ffffffffffffffffffffffffffffffffffffffff8616600482015260248101829052935f908590604490829084905af1908115611a3a577fc74777e2214d32e7b4952c2ecbbfc0ec7dc3642e448c3c927261cb69d9f036509461295192612a27575b5093505061290c565b5f612a3191612285565b5f612a1e565b612a43876004546122de565b600455612877565b611351612a5d9260ff85541690612386565b600160ff8254160160ff8111611adb57600a60ff809216061660ff1982541617815561286c565b96507f7fffffffffffffffffffffffffffffffffffffffffffffffffffffffffffffff8711612ac7578660011b9087820460021488151715611adb5790966127b5565b60846040517f327512f600000000000000000000000000000000000000000000000000000000815260206004820152602b60248201527f42657420616d6f756e7420746f6f206c6172676520666f72207061796f75742060448201527f63616c63756c6174696f6e0000000000000000000000000000000000000000006064820152fd5b50945091505f92508083526006602052612b6d60016040852085815501612304565b8083526007602052604083207fffffffffffffffffffffffff00000000000000000000000000000000000000008154169055825260086020526040822060ff198154169055557fffffffffffffffffffffffffffffffffffffffffffffffffffffffffffff00ff8154169055565b60019060208451940193818401550161273c565b60646040517f13b419a900000000000000000000000000000000000000000000000000000000815260206004820152601360248201527f52657175657374204944206d69736d61746368000000000000000000000000006044820152fd5b6040517f1726a07e00000000000000000000000000000000000000000000000000000000815260206004820152601660248201527f496e76616c696420706c617965722061646472657373000000000000000000006044820152606490fd5b60646040517f1726a07e00000000000000000000000000000000000000000000000000000000815260206004820152601b60248201527f496e76616c69642072616e646f6d20776f726473206c656e67746800000000006044820152fd5b60646040517f1726a07e00000000000000000000000000000000000000000000000000000000815260206004820152601960248201527f5265717565737420616c72656164792066756c66696c6c6564000000000000006044820152fd5b60646040517f1726a07e00000000000000000000000000000000000000000000000000000000815260206004820152601160248201527f52657175657374206e6f7420666f756e640000000000000000000000000000006044820152fd5b73ffffffffffffffffffffffffffffffffffffffff60015460081c163303612dea57565b7f118cdaa7000000000000000000000000000000000000000000000000000000005f523360045260245ffd5b60025f5414612e255760025f55565b7f3ee5aeb5000000000000000000000000000000000000000000000000000000005f5260045ffd5b60ff60015416612e5957565b7fd93c0665000000000000000000000000000000000000000000000000000000005f5260045ffd5b9190612f1a5760808160ff8060029451161660ff19855416178455602081015161ff0085549160081b16807fffffffffffffffffffffffffffffffffffffffffffffffffffffffffffff00ff83161786557fffffffffffffffffffffffffffffffffffffffffffffffffffff0000000000ff65ffffffff0000604085015160101b16921617178455606081015160018501550151910155565b7f4e487b71000000000000000000000000000000000000000000000000000000005f525f60045260245ffdfea2646970667358221220fbe8ba49fd0de3b966db2361d0cb3707c15856934e64acc513d44cc911df732a64736f6c634300081c0033",
    "linkReferences": {}
  },
  "methodIdentifiers": {
    "HEADS()": "1995cec6",
    "MAX_BET_AMOUNT()": "309167f5",
    "MAX_HISTORY_SIZE()": "c1066251",
    "MAX_POSSIBLE_PAYOUT()": "4689b441",
    "RESULT_FORCE_STOPPED()": "38f8bc6d",
    "RESULT_RECOVERED()": "57816f3e",
    "TAILS()": "4ca1a838",
    "canStartNewGame(address)": "5d424b85",
    "flipCoin(uint8,uint256)": "f3b4d4cb",
    "forceStopGame(address)": "b52a0855",
    "gamaToken()": "d56ec8c9",
    "getBetHistory(address)": "ce84a53b",
    "getGameStatus(address)": "54e4437e",
    "getPlayerForRequest(uint256)": "04243151",
    "getUserData(address)": "ffc9896b",
    "hasPendingRequest(address)": "0c99375d",
    "owner()": "8da5cb5b",
    "pause()": "8456cb59",
    "paused()": "5c975abb",
    "rawFulfillRandomWords(uint256,uint256[])": "1fe543e3",
    "recoverOwnStuckGame()": "a20ff9fc",
    "renounceOwnership()": "715018a6",
    "s_requests(uint256)": "a168fa89",
    "totalGamesPlayed()": "5c492129",
    "totalPayoutAmount()": "e7efcfc2",
    "totalWageredAmount()": "5bdb2e1b",
    "transferOwnership(address)": "f2fde38b",
    "unpause()": "3f4ba83a"
  },
  "id": 36
}